{
  "_format": "hh-sol-artifact-1",
  "contractName": "TestNft",
  "sourceName": "contracts/TestNft.sol",
  "abi": [
    {
      "inputs": [],
      "stateMutability": "nonpayable",
      "type": "constructor"
    },
    {
      "anonymous": false,
      "inputs": [
        {
          "indexed": true,
          "internalType": "address",
          "name": "owner",
          "type": "address"
        },
        {
          "indexed": true,
          "internalType": "address",
          "name": "approved",
          "type": "address"
        },
        {
          "indexed": true,
          "internalType": "uint256",
          "name": "tokenId",
          "type": "uint256"
        }
      ],
      "name": "Approval",
      "type": "event"
    },
    {
      "anonymous": false,
      "inputs": [
        {
          "indexed": true,
          "internalType": "address",
          "name": "owner",
          "type": "address"
        },
        {
          "indexed": true,
          "internalType": "address",
          "name": "operator",
          "type": "address"
        },
        {
          "indexed": false,
          "internalType": "bool",
          "name": "approved",
          "type": "bool"
        }
      ],
      "name": "ApprovalForAll",
      "type": "event"
    },
    {
      "anonymous": false,
      "inputs": [
        {
          "indexed": true,
          "internalType": "address",
          "name": "previousOwner",
          "type": "address"
        },
        {
          "indexed": true,
          "internalType": "address",
          "name": "newOwner",
          "type": "address"
        }
      ],
      "name": "OwnershipTransferred",
      "type": "event"
    },
    {
      "anonymous": false,
      "inputs": [
        {
          "indexed": true,
          "internalType": "address",
          "name": "from",
          "type": "address"
        },
        {
          "indexed": true,
          "internalType": "address",
          "name": "to",
          "type": "address"
        },
        {
          "indexed": true,
          "internalType": "uint256",
          "name": "tokenId",
          "type": "uint256"
        }
      ],
      "name": "Transfer",
      "type": "event"
    },
    {
      "inputs": [],
      "name": "_tokenIds",
      "outputs": [
        {
          "internalType": "uint256",
          "name": "_value",
          "type": "uint256"
        }
      ],
      "stateMutability": "view",
      "type": "function"
    },
    {
      "inputs": [
        {
          "internalType": "address",
          "name": "to",
          "type": "address"
        },
        {
          "internalType": "uint256",
          "name": "tokenId",
          "type": "uint256"
        }
      ],
      "name": "approve",
      "outputs": [],
      "stateMutability": "nonpayable",
      "type": "function"
    },
    {
      "inputs": [
        {
          "internalType": "address",
          "name": "owner",
          "type": "address"
        }
      ],
      "name": "balanceOf",
      "outputs": [
        {
          "internalType": "uint256",
          "name": "",
          "type": "uint256"
        }
      ],
      "stateMutability": "view",
      "type": "function"
    },
    {
      "inputs": [
        {
          "internalType": "uint256",
          "name": "tokenId",
          "type": "uint256"
        }
      ],
      "name": "getApproved",
      "outputs": [
        {
          "internalType": "address",
          "name": "",
          "type": "address"
        }
      ],
      "stateMutability": "view",
      "type": "function"
    },
    {
      "inputs": [
        {
          "internalType": "address",
          "name": "owner",
          "type": "address"
        },
        {
          "internalType": "address",
          "name": "operator",
          "type": "address"
        }
      ],
      "name": "isApprovedForAll",
      "outputs": [
        {
          "internalType": "bool",
          "name": "",
          "type": "bool"
        }
      ],
      "stateMutability": "view",
      "type": "function"
    },
    {
      "inputs": [
        {
          "internalType": "address",
          "name": "receiver",
          "type": "address"
        }
      ],
      "name": "mintNft",
      "outputs": [
        {
          "internalType": "uint256",
          "name": "",
          "type": "uint256"
        }
      ],
      "stateMutability": "nonpayable",
      "type": "function"
    },
    {
      "inputs": [],
      "name": "name",
      "outputs": [
        {
          "internalType": "string",
          "name": "",
          "type": "string"
        }
      ],
      "stateMutability": "view",
      "type": "function"
    },
    {
      "inputs": [],
      "name": "owner",
      "outputs": [
        {
          "internalType": "address",
          "name": "",
          "type": "address"
        }
      ],
      "stateMutability": "view",
      "type": "function"
    },
    {
      "inputs": [
        {
          "internalType": "uint256",
          "name": "tokenId",
          "type": "uint256"
        }
      ],
      "name": "ownerOf",
      "outputs": [
        {
          "internalType": "address",
          "name": "",
          "type": "address"
        }
      ],
      "stateMutability": "view",
      "type": "function"
    },
    {
      "inputs": [],
      "name": "renounceOwnership",
      "outputs": [],
      "stateMutability": "nonpayable",
      "type": "function"
    },
    {
      "inputs": [
        {
          "internalType": "address",
          "name": "from",
          "type": "address"
        },
        {
          "internalType": "address",
          "name": "to",
          "type": "address"
        },
        {
          "internalType": "uint256",
          "name": "tokenId",
          "type": "uint256"
        }
      ],
      "name": "safeTransferFrom",
      "outputs": [],
      "stateMutability": "nonpayable",
      "type": "function"
    },
    {
      "inputs": [
        {
          "internalType": "address",
          "name": "from",
          "type": "address"
        },
        {
          "internalType": "address",
          "name": "to",
          "type": "address"
        },
        {
          "internalType": "uint256",
          "name": "tokenId",
          "type": "uint256"
        },
        {
          "internalType": "bytes",
          "name": "_data",
          "type": "bytes"
        }
      ],
      "name": "safeTransferFrom",
      "outputs": [],
      "stateMutability": "nonpayable",
      "type": "function"
    },
    {
      "inputs": [
        {
          "internalType": "address",
          "name": "operator",
          "type": "address"
        },
        {
          "internalType": "bool",
          "name": "approved",
          "type": "bool"
        }
      ],
      "name": "setApprovalForAll",
      "outputs": [],
      "stateMutability": "nonpayable",
      "type": "function"
    },
    {
      "inputs": [
        {
          "internalType": "bytes4",
          "name": "interfaceId",
          "type": "bytes4"
        }
      ],
      "name": "supportsInterface",
      "outputs": [
        {
          "internalType": "bool",
          "name": "",
          "type": "bool"
        }
      ],
      "stateMutability": "view",
      "type": "function"
    },
    {
      "inputs": [],
      "name": "symbol",
      "outputs": [
        {
          "internalType": "string",
          "name": "",
          "type": "string"
        }
      ],
      "stateMutability": "view",
      "type": "function"
    },
    {
      "inputs": [
        {
          "internalType": "uint256",
          "name": "tokenId",
          "type": "uint256"
        }
      ],
      "name": "tokenURI",
      "outputs": [
        {
          "internalType": "string",
          "name": "",
          "type": "string"
        }
      ],
      "stateMutability": "view",
      "type": "function"
    },
    {
      "inputs": [
        {
          "internalType": "address",
          "name": "from",
          "type": "address"
        },
        {
          "internalType": "address",
          "name": "to",
          "type": "address"
        },
        {
          "internalType": "uint256",
          "name": "tokenId",
          "type": "uint256"
        }
      ],
      "name": "transferFrom",
      "outputs": [],
      "stateMutability": "nonpayable",
      "type": "function"
    },
    {
      "inputs": [
        {
          "internalType": "address",
          "name": "newOwner",
          "type": "address"
        }
      ],
      "name": "transferOwnership",
      "outputs": [],
      "stateMutability": "nonpayable",
      "type": "function"
    }
  ],
  "bytecode": "0x60806040523480156200001157600080fd5b506040518060400160405280600b81526020017f4e46542d4578616d706c650000000000000000000000000000000000000000008152506040518060400160405280600381526020017f4e45580000000000000000000000000000000000000000000000000000000000815250816000908051906020019062000096929190620001a6565b508060019080519060200190620000af929190620001a6565b505050620000d2620000c6620000d860201b60201c565b620000e060201b60201c565b620002bb565b600033905090565b6000600660009054906101000a900473ffffffffffffffffffffffffffffffffffffffff16905081600660006101000a81548173ffffffffffffffffffffffffffffffffffffffff021916908373ffffffffffffffffffffffffffffffffffffffff1602179055508173ffffffffffffffffffffffffffffffffffffffff168173ffffffffffffffffffffffffffffffffffffffff167f8be0079c531659141344cd1fd0a4f28419497f9722a3daafe3b4186f6b6457e060405160405180910390a35050565b828054620001b49062000256565b90600052602060002090601f016020900481019282620001d8576000855562000224565b82601f10620001f357805160ff191683800117855562000224565b8280016001018555821562000224579182015b828111156200022357825182559160200191906001019062000206565b5b50905062000233919062000237565b5090565b5b808211156200025257600081600090555060010162000238565b5090565b600060028204905060018216806200026f57607f821691505b602082108114156200028657620002856200028c565b5b50919050565b7f4e487b7100000000000000000000000000000000000000000000000000000000600052602260045260246000fd5b612b9980620002cb6000396000f3fe608060405234801561001057600080fd5b50600436106101165760003560e01c80638da5cb5b116100a2578063b88d4fde11610071578063b88d4fde146102cd578063c87b56dd146102e9578063e985e9c514610319578063e9c2e14b14610349578063f2fde38b1461037957610116565b80638da5cb5b1461025757806395d89b4114610275578063a22cb46514610293578063aa46a400146102af57610116565b806323b872dd116100e957806323b872dd146101b557806342842e0e146101d15780636352211e146101ed57806370a082311461021d578063715018a61461024d57610116565b806301ffc9a71461011b57806306fdde031461014b578063081812fc14610169578063095ea7b314610199575b600080fd5b61013560048036038101906101309190611c9d565b610395565b60405161014291906120a3565b60405180910390f35b610153610477565b60405161016091906120be565b60405180910390f35b610183600480360381019061017e9190611cef565b610509565b604051610190919061203c565b60405180910390f35b6101b360048036038101906101ae9190611c61565b61058e565b005b6101cf60048036038101906101ca9190611b5b565b6106a6565b005b6101eb60048036038101906101e69190611b5b565b610706565b005b61020760048036038101906102029190611cef565b610726565b604051610214919061203c565b60405180910390f35b61023760048036038101906102329190611af6565b6107d8565b60405161024491906122e0565b60405180910390f35b610255610890565b005b61025f610918565b60405161026c919061203c565b60405180910390f35b61027d610942565b60405161028a91906120be565b60405180910390f35b6102ad60048036038101906102a89190611c25565b6109d4565b005b6102b76109ea565b6040516102c491906122e0565b60405180910390f35b6102e760048036038101906102e29190611baa565b6109f6565b005b61030360048036038101906102fe9190611cef565b610a58565b60405161031091906120be565b60405180910390f35b610333600480360381019061032e9190611b1f565b610aff565b60405161034091906120a3565b60405180910390f35b610363600480360381019061035e9190611af6565b610b93565b60405161037091906122e0565b60405180910390f35b610393600480360381019061038e9190611af6565b610c3c565b005b60007f80ac58cd000000000000000000000000000000000000000000000000000000007bffffffffffffffffffffffffffffffffffffffffffffffffffffffff1916827bffffffffffffffffffffffffffffffffffffffffffffffffffffffff1916148061046057507f5b5e139f000000000000000000000000000000000000000000000000000000007bffffffffffffffffffffffffffffffffffffffffffffffffffffffff1916827bffffffffffffffffffffffffffffffffffffffffffffffffffffffff1916145b80610470575061046f82610d34565b5b9050919050565b60606000805461048690612505565b80601f01602080910402602001604051908101604052809291908181526020018280546104b290612505565b80156104ff5780601f106104d4576101008083540402835291602001916104ff565b820191906000526020600020905b8154815290600101906020018083116104e257829003601f168201915b5050505050905090565b600061051482610d9e565b610553576040517f08c379a000000000000000000000000000000000000000000000000000000000815260040161054a90612240565b60405180910390fd5b6004600083815260200190815260200160002060009054906101000a900473ffffffffffffffffffffffffffffffffffffffff169050919050565b600061059982610726565b90508073ffffffffffffffffffffffffffffffffffffffff168373ffffffffffffffffffffffffffffffffffffffff16141561060a576040517f08c379a0000000000000000000000000000000000000000000000000000000008152600401610601906122a0565b60405180910390fd5b8073ffffffffffffffffffffffffffffffffffffffff16610629610e0a565b73ffffffffffffffffffffffffffffffffffffffff161480610658575061065781610652610e0a565b610aff565b5b610697576040517f08c379a000000000000000000000000000000000000000000000000000000000815260040161068e906121c0565b60405180910390fd5b6106a18383610e12565b505050565b6106b76106b1610e0a565b82610ecb565b6106f6576040517f08c379a00000000000000000000000000000000000000000000000000000000081526004016106ed906122c0565b60405180910390fd5b610701838383610fa9565b505050565b610721838383604051806020016040528060008152506109f6565b505050565b6000806002600084815260200190815260200160002060009054906101000a900473ffffffffffffffffffffffffffffffffffffffff169050600073ffffffffffffffffffffffffffffffffffffffff168173ffffffffffffffffffffffffffffffffffffffff1614156107cf576040517f08c379a00000000000000000000000000000000000000000000000000000000081526004016107c690612200565b60405180910390fd5b80915050919050565b60008073ffffffffffffffffffffffffffffffffffffffff168273ffffffffffffffffffffffffffffffffffffffff161415610849576040517f08c379a0000000000000000000000000000000000000000000000000000000008152600401610840906121e0565b60405180910390fd5b600360008373ffffffffffffffffffffffffffffffffffffffff1673ffffffffffffffffffffffffffffffffffffffff168152602001908152602001600020549050919050565b610898610e0a565b73ffffffffffffffffffffffffffffffffffffffff166108b6610918565b73ffffffffffffffffffffffffffffffffffffffff161461090c576040517f08c379a000000000000000000000000000000000000000000000000000000000815260040161090390612260565b60405180910390fd5b6109166000611210565b565b6000600660009054906101000a900473ffffffffffffffffffffffffffffffffffffffff16905090565b60606001805461095190612505565b80601f016020809104026020016040519081016040528092919081815260200182805461097d90612505565b80156109ca5780601f1061099f576101008083540402835291602001916109ca565b820191906000526020600020905b8154815290600101906020018083116109ad57829003601f168201915b5050505050905090565b6109e66109df610e0a565b83836112d6565b5050565b60078060000154905081565b610a07610a01610e0a565b83610ecb565b610a46576040517f08c379a0000000000000000000000000000000000000000000000000000000008152600401610a3d906122c0565b60405180910390fd5b610a5284848484611443565b50505050565b6060610a6382610d9e565b610aa2576040517f08c379a0000000000000000000000000000000000000000000000000000000008152600401610a9990612280565b60405180910390fd5b6000610aac61149f565b90506000815111610acc5760405180602001604052806000815250610af7565b80610ad6846114b6565b604051602001610ae7929190612018565b6040516020818303038152906040525b915050919050565b6000600560008473ffffffffffffffffffffffffffffffffffffffff1673ffffffffffffffffffffffffffffffffffffffff16815260200190815260200160002060008373ffffffffffffffffffffffffffffffffffffffff1673ffffffffffffffffffffffffffffffffffffffff16815260200190815260200160002060009054906101000a900460ff16905092915050565b6000610b9d610e0a565b73ffffffffffffffffffffffffffffffffffffffff16610bbb610918565b73ffffffffffffffffffffffffffffffffffffffff1614610c11576040517f08c379a0000000000000000000000000000000000000000000000000000000008152600401610c0890612260565b60405180910390fd5b610c1b6007611663565b6000610c276007611679565b9050610c338382611687565b80915050919050565b610c44610e0a565b73ffffffffffffffffffffffffffffffffffffffff16610c62610918565b73ffffffffffffffffffffffffffffffffffffffff1614610cb8576040517f08c379a0000000000000000000000000000000000000000000000000000000008152600401610caf90612260565b60405180910390fd5b600073ffffffffffffffffffffffffffffffffffffffff168173ffffffffffffffffffffffffffffffffffffffff161415610d28576040517f08c379a0000000000000000000000000000000000000000000000000000000008152600401610d1f90612100565b60405180910390fd5b610d3181611210565b50565b60007f01ffc9a7000000000000000000000000000000000000000000000000000000007bffffffffffffffffffffffffffffffffffffffffffffffffffffffff1916827bffffffffffffffffffffffffffffffffffffffffffffffffffffffff1916149050919050565b60008073ffffffffffffffffffffffffffffffffffffffff166002600084815260200190815260200160002060009054906101000a900473ffffffffffffffffffffffffffffffffffffffff1673ffffffffffffffffffffffffffffffffffffffff1614159050919050565b600033905090565b816004600083815260200190815260200160002060006101000a81548173ffffffffffffffffffffffffffffffffffffffff021916908373ffffffffffffffffffffffffffffffffffffffff160217905550808273ffffffffffffffffffffffffffffffffffffffff16610e8583610726565b73ffffffffffffffffffffffffffffffffffffffff167f8c5be1e5ebec7d5bd14f71427d1e84f3dd0314c0f7b2291e5b200ac8c7c3b92560405160405180910390a45050565b6000610ed682610d9e565b610f15576040517f08c379a0000000000000000000000000000000000000000000000000000000008152600401610f0c906121a0565b60405180910390fd5b6000610f2083610726565b90508073ffffffffffffffffffffffffffffffffffffffff168473ffffffffffffffffffffffffffffffffffffffff161480610f8f57508373ffffffffffffffffffffffffffffffffffffffff16610f7784610509565b73ffffffffffffffffffffffffffffffffffffffff16145b80610fa05750610f9f8185610aff565b5b91505092915050565b8273ffffffffffffffffffffffffffffffffffffffff16610fc982610726565b73ffffffffffffffffffffffffffffffffffffffff161461101f576040517f08c379a000000000000000000000000000000000000000000000000000000000815260040161101690612120565b60405180910390fd5b600073ffffffffffffffffffffffffffffffffffffffff168273ffffffffffffffffffffffffffffffffffffffff16141561108f576040517f08c379a000000000000000000000000000000000000000000000000000000000815260040161108690612160565b60405180910390fd5b61109a838383611861565b6110a5600082610e12565b6001600360008573ffffffffffffffffffffffffffffffffffffffff1673ffffffffffffffffffffffffffffffffffffffff16815260200190815260200160002060008282546110f5919061241b565b925050819055506001600360008473ffffffffffffffffffffffffffffffffffffffff1673ffffffffffffffffffffffffffffffffffffffff168152602001908152602001600020600082825461114c9190612394565b92505081905550816002600083815260200190815260200160002060006101000a81548173ffffffffffffffffffffffffffffffffffffffff021916908373ffffffffffffffffffffffffffffffffffffffff160217905550808273ffffffffffffffffffffffffffffffffffffffff168473ffffffffffffffffffffffffffffffffffffffff167fddf252ad1be2c89b69c2b068fc378daa952ba7f163c4a11628f55a4df523b3ef60405160405180910390a461120b838383611866565b505050565b6000600660009054906101000a900473ffffffffffffffffffffffffffffffffffffffff16905081600660006101000a81548173ffffffffffffffffffffffffffffffffffffffff021916908373ffffffffffffffffffffffffffffffffffffffff1602179055508173ffffffffffffffffffffffffffffffffffffffff168173ffffffffffffffffffffffffffffffffffffffff167f8be0079c531659141344cd1fd0a4f28419497f9722a3daafe3b4186f6b6457e060405160405180910390a35050565b8173ffffffffffffffffffffffffffffffffffffffff168373ffffffffffffffffffffffffffffffffffffffff161415611345576040517f08c379a000000000000000000000000000000000000000000000000000000000815260040161133c90612180565b60405180910390fd5b80600560008573ffffffffffffffffffffffffffffffffffffffff1673ffffffffffffffffffffffffffffffffffffffff16815260200190815260200160002060008473ffffffffffffffffffffffffffffffffffffffff1673ffffffffffffffffffffffffffffffffffffffff16815260200190815260200160002060006101000a81548160ff0219169083151502179055508173ffffffffffffffffffffffffffffffffffffffff168373ffffffffffffffffffffffffffffffffffffffff167f17307eab39ab6107e8899845ad3d59bd9653f200f220920489ca2b5937696c318360405161143691906120a3565b60405180910390a3505050565b61144e848484610fa9565b61145a8484848461186b565b611499576040517f08c379a0000000000000000000000000000000000000000000000000000000008152600401611490906120e0565b60405180910390fd5b50505050565b606060405180602001604052806000815250905090565b606060008214156114fe576040518060400160405280600181526020017f3000000000000000000000000000000000000000000000000000000000000000815250905061165e565b600082905060005b6000821461153057808061151990612568565b915050600a8261152991906123ea565b9150611506565b60008167ffffffffffffffff811115611572577f4e487b7100000000000000000000000000000000000000000000000000000000600052604160045260246000fd5b6040519080825280601f01601f1916602001820160405280156115a45781602001600182028036833780820191505090505b5090505b60008514611657576001826115bd919061241b565b9150600a856115cc91906125b1565b60306115d89190612394565b60f81b818381518110611614577f4e487b7100000000000000000000000000000000000000000000000000000000600052603260045260246000fd5b60200101907effffffffffffffffffffffffffffffffffffffffffffffffffffffffffffff1916908160001a905350600a8561165091906123ea565b94506115a8565b8093505050505b919050565b6001816000016000828254019250508190555050565b600081600001549050919050565b600073ffffffffffffffffffffffffffffffffffffffff168273ffffffffffffffffffffffffffffffffffffffff1614156116f7576040517f08c379a00000000000000000000000000000000000000000000000000000000081526004016116ee90612220565b60405180910390fd5b61170081610d9e565b15611740576040517f08c379a000000000000000000000000000000000000000000000000000000000815260040161173790612140565b60405180910390fd5b61174c60008383611861565b6001600360008473ffffffffffffffffffffffffffffffffffffffff1673ffffffffffffffffffffffffffffffffffffffff168152602001908152602001600020600082825461179c9190612394565b92505081905550816002600083815260200190815260200160002060006101000a81548173ffffffffffffffffffffffffffffffffffffffff021916908373ffffffffffffffffffffffffffffffffffffffff160217905550808273ffffffffffffffffffffffffffffffffffffffff16600073ffffffffffffffffffffffffffffffffffffffff167fddf252ad1be2c89b69c2b068fc378daa952ba7f163c4a11628f55a4df523b3ef60405160405180910390a461185d60008383611866565b5050565b505050565b505050565b600061188c8473ffffffffffffffffffffffffffffffffffffffff16611a02565b156119f5578373ffffffffffffffffffffffffffffffffffffffff1663150b7a026118b5610e0a565b8786866040518563ffffffff1660e01b81526004016118d79493929190612057565b602060405180830381600087803b1580156118f157600080fd5b505af192505050801561192257506040513d601f19601f8201168201806040525081019061191f9190611cc6565b60015b6119a5573d8060008114611952576040519150601f19603f3d011682016040523d82523d6000602084013e611957565b606091505b5060008151141561199d576040517f08c379a0000000000000000000000000000000000000000000000000000000008152600401611994906120e0565b60405180910390fd5b805181602001fd5b63150b7a0260e01b7bffffffffffffffffffffffffffffffffffffffffffffffffffffffff1916817bffffffffffffffffffffffffffffffffffffffffffffffffffffffff1916149150506119fa565b600190505b949350505050565b6000808273ffffffffffffffffffffffffffffffffffffffff163b119050919050565b6000611a38611a3384612320565b6122fb565b905082815260208101848484011115611a5057600080fd5b611a5b8482856124c3565b509392505050565b600081359050611a7281612b07565b92915050565b600081359050611a8781612b1e565b92915050565b600081359050611a9c81612b35565b92915050565b600081519050611ab181612b35565b92915050565b600082601f830112611ac857600080fd5b8135611ad8848260208601611a25565b91505092915050565b600081359050611af081612b4c565b92915050565b600060208284031215611b0857600080fd5b6000611b1684828501611a63565b91505092915050565b60008060408385031215611b3257600080fd5b6000611b4085828601611a63565b9250506020611b5185828601611a63565b9150509250929050565b600080600060608486031215611b7057600080fd5b6000611b7e86828701611a63565b9350506020611b8f86828701611a63565b9250506040611ba086828701611ae1565b9150509250925092565b60008060008060808587031215611bc057600080fd5b6000611bce87828801611a63565b9450506020611bdf87828801611a63565b9350506040611bf087828801611ae1565b925050606085013567ffffffffffffffff811115611c0d57600080fd5b611c1987828801611ab7565b91505092959194509250565b60008060408385031215611c3857600080fd5b6000611c4685828601611a63565b9250506020611c5785828601611a78565b9150509250929050565b60008060408385031215611c7457600080fd5b6000611c8285828601611a63565b9250506020611c9385828601611ae1565b9150509250929050565b600060208284031215611caf57600080fd5b6000611cbd84828501611a8d565b91505092915050565b600060208284031215611cd857600080fd5b6000611ce684828501611aa2565b91505092915050565b600060208284031215611d0157600080fd5b6000611d0f84828501611ae1565b91505092915050565b611d218161244f565b82525050565b611d3081612461565b82525050565b6000611d4182612351565b611d4b8185612367565b9350611d5b8185602086016124d2565b611d648161269e565b840191505092915050565b6000611d7a8261235c565b611d848185612378565b9350611d948185602086016124d2565b611d9d8161269e565b840191505092915050565b6000611db38261235c565b611dbd8185612389565b9350611dcd8185602086016124d2565b80840191505092915050565b6000611de6603283612378565b9150611df1826126af565b604082019050919050565b6000611e09602683612378565b9150611e14826126fe565b604082019050919050565b6000611e2c602583612378565b9150611e378261274d565b604082019050919050565b6000611e4f601c83612378565b9150611e5a8261279c565b602082019050919050565b6000611e72602483612378565b9150611e7d826127c5565b604082019050919050565b6000611e95601983612378565b9150611ea082612814565b602082019050919050565b6000611eb8602c83612378565b9150611ec38261283d565b604082019050919050565b6000611edb603883612378565b9150611ee68261288c565b604082019050919050565b6000611efe602a83612378565b9150611f09826128db565b604082019050919050565b6000611f21602983612378565b9150611f2c8261292a565b604082019050919050565b6000611f44602083612378565b9150611f4f82612979565b602082019050919050565b6000611f67602c83612378565b9150611f72826129a2565b604082019050919050565b6000611f8a602083612378565b9150611f95826129f1565b602082019050919050565b6000611fad602f83612378565b9150611fb882612a1a565b604082019050919050565b6000611fd0602183612378565b9150611fdb82612a69565b604082019050919050565b6000611ff3603183612378565b9150611ffe82612ab8565b604082019050919050565b612012816124b9565b82525050565b60006120248285611da8565b91506120308284611da8565b91508190509392505050565b60006020820190506120516000830184611d18565b92915050565b600060808201905061206c6000830187611d18565b6120796020830186611d18565b6120866040830185612009565b81810360608301526120988184611d36565b905095945050505050565b60006020820190506120b86000830184611d27565b92915050565b600060208201905081810360008301526120d88184611d6f565b905092915050565b600060208201905081810360008301526120f981611dd9565b9050919050565b6000602082019050818103600083015261211981611dfc565b9050919050565b6000602082019050818103600083015261213981611e1f565b9050919050565b6000602082019050818103600083015261215981611e42565b9050919050565b6000602082019050818103600083015261217981611e65565b9050919050565b6000602082019050818103600083015261219981611e88565b9050919050565b600060208201905081810360008301526121b981611eab565b9050919050565b600060208201905081810360008301526121d981611ece565b9050919050565b600060208201905081810360008301526121f981611ef1565b9050919050565b6000602082019050818103600083015261221981611f14565b9050919050565b6000602082019050818103600083015261223981611f37565b9050919050565b6000602082019050818103600083015261225981611f5a565b9050919050565b6000602082019050818103600083015261227981611f7d565b9050919050565b6000602082019050818103600083015261229981611fa0565b9050919050565b600060208201905081810360008301526122b981611fc3565b9050919050565b600060208201905081810360008301526122d981611fe6565b9050919050565b60006020820190506122f56000830184612009565b92915050565b6000612305612316565b90506123118282612537565b919050565b6000604051905090565b600067ffffffffffffffff82111561233b5761233a61266f565b5b6123448261269e565b9050602081019050919050565b600081519050919050565b600081519050919050565b600082825260208201905092915050565b600082825260208201905092915050565b600081905092915050565b600061239f826124b9565b91506123aa836124b9565b9250827fffffffffffffffffffffffffffffffffffffffffffffffffffffffffffffffff038211156123df576123de6125e2565b5b828201905092915050565b60006123f5826124b9565b9150612400836124b9565b9250826124105761240f612611565b5b828204905092915050565b6000612426826124b9565b9150612431836124b9565b925082821015612444576124436125e2565b5b828203905092915050565b600061245a82612499565b9050919050565b60008115159050919050565b60007fffffffff0000000000000000000000000000000000000000000000000000000082169050919050565b600073ffffffffffffffffffffffffffffffffffffffff82169050919050565b6000819050919050565b82818337600083830152505050565b60005b838110156124f05780820151818401526020810190506124d5565b838111156124ff576000848401525b50505050565b6000600282049050600182168061251d57607f821691505b6020821081141561253157612530612640565b5b50919050565b6125408261269e565b810181811067ffffffffffffffff8211171561255f5761255e61266f565b5b80604052505050565b6000612573826124b9565b91507fffffffffffffffffffffffffffffffffffffffffffffffffffffffffffffffff8214156125a6576125a56125e2565b5b600182019050919050565b60006125bc826124b9565b91506125c7836124b9565b9250826125d7576125d6612611565b5b828206905092915050565b7f4e487b7100000000000000000000000000000000000000000000000000000000600052601160045260246000fd5b7f4e487b7100000000000000000000000000000000000000000000000000000000600052601260045260246000fd5b7f4e487b7100000000000000000000000000000000000000000000000000000000600052602260045260246000fd5b7f4e487b7100000000000000000000000000000000000000000000000000000000600052604160045260246000fd5b6000601f19601f8301169050919050565b7f4552433732313a207472616e7366657220746f206e6f6e20455243373231526560008201527f63656976657220696d706c656d656e7465720000000000000000000000000000602082015250565b7f4f776e61626c653a206e6577206f776e657220697320746865207a65726f206160008201527f6464726573730000000000000000000000000000000000000000000000000000602082015250565b7f4552433732313a207472616e736665722066726f6d20696e636f72726563742060008201527f6f776e6572000000000000000000000000000000000000000000000000000000602082015250565b7f4552433732313a20746f6b656e20616c7265616479206d696e74656400000000600082015250565b7f4552433732313a207472616e7366657220746f20746865207a65726f2061646460008201527f7265737300000000000000000000000000000000000000000000000000000000602082015250565b7f4552433732313a20617070726f766520746f2063616c6c657200000000000000600082015250565b7f4552433732313a206f70657261746f7220717565727920666f72206e6f6e657860008201527f697374656e7420746f6b656e0000000000000000000000000000000000000000602082015250565b7f4552433732313a20617070726f76652063616c6c6572206973206e6f74206f7760008201527f6e6572206e6f7220617070726f76656420666f7220616c6c0000000000000000602082015250565b7f4552433732313a2062616c616e636520717565727920666f7220746865207a6560008201527f726f206164647265737300000000000000000000000000000000000000000000602082015250565b7f4552433732313a206f776e657220717565727920666f72206e6f6e657869737460008201527f656e7420746f6b656e0000000000000000000000000000000000000000000000602082015250565b7f4552433732313a206d696e7420746f20746865207a65726f2061646472657373600082015250565b7f4552433732313a20617070726f76656420717565727920666f72206e6f6e657860008201527f697374656e7420746f6b656e0000000000000000000000000000000000000000602082015250565b7f4f776e61626c653a2063616c6c6572206973206e6f7420746865206f776e6572600082015250565b7f4552433732314d657461646174613a2055524920717565727920666f72206e6f60008201527f6e6578697374656e7420746f6b656e0000000000000000000000000000000000602082015250565b7f4552433732313a20617070726f76616c20746f2063757272656e74206f776e6560008201527f7200000000000000000000000000000000000000000000000000000000000000602082015250565b7f4552433732313a207472616e736665722063616c6c6572206973206e6f74206f60008201527f776e6572206e6f7220617070726f766564000000000000000000000000000000602082015250565b612b108161244f565b8114612b1b57600080fd5b50565b612b2781612461565b8114612b3257600080fd5b50565b612b3e8161246d565b8114612b4957600080fd5b50565b612b55816124b9565b8114612b6057600080fd5b5056fea2646970667358221220409f94c0efadd38ab788946353e477c2bd1008ba4ac1acaedde188124ee8525c64736f6c63430008040033",
  "linkReferences": {},
  "deployedLinkReferences": {}
}